{
  "_format": "hh-sol-artifact-1",
  "contractName": "DANFT",
  "sourceName": "contracts/DANFT.sol",
  "abi": [
    {
      "inputs": [],
      "stateMutability": "nonpayable",
      "type": "constructor"
    },
    {
      "anonymous": false,
      "inputs": [
        {
          "indexed": true,
          "internalType": "address",
          "name": "owner",
          "type": "address"
        },
        {
          "indexed": true,
          "internalType": "address",
          "name": "approved",
          "type": "address"
        },
        {
          "indexed": true,
          "internalType": "uint256",
          "name": "tokenId",
          "type": "uint256"
        }
      ],
      "name": "Approval",
      "type": "event"
    },
    {
      "anonymous": false,
      "inputs": [
        {
          "indexed": true,
          "internalType": "address",
          "name": "owner",
          "type": "address"
        },
        {
          "indexed": true,
          "internalType": "address",
          "name": "operator",
          "type": "address"
        },
        {
          "indexed": false,
          "internalType": "bool",
          "name": "approved",
          "type": "bool"
        }
      ],
      "name": "ApprovalForAll",
      "type": "event"
    },
    {
      "anonymous": false,
      "inputs": [
        {
          "indexed": true,
          "internalType": "address",
          "name": "previousOwner",
          "type": "address"
        },
        {
          "indexed": true,
          "internalType": "address",
          "name": "newOwner",
          "type": "address"
        }
      ],
      "name": "OwnershipTransferred",
      "type": "event"
    },
    {
      "anonymous": false,
      "inputs": [
        {
          "indexed": true,
          "internalType": "address",
          "name": "from",
          "type": "address"
        },
        {
          "indexed": true,
          "internalType": "address",
          "name": "to",
          "type": "address"
        },
        {
          "indexed": true,
          "internalType": "uint256",
          "name": "tokenId",
          "type": "uint256"
        }
      ],
      "name": "Transfer",
      "type": "event"
    },
    {
      "inputs": [
        {
          "internalType": "address",
          "name": "to",
          "type": "address"
        },
        {
          "internalType": "uint256",
          "name": "tokenId",
          "type": "uint256"
        }
      ],
      "name": "approve",
      "outputs": [],
      "stateMutability": "nonpayable",
      "type": "function"
    },
    {
      "inputs": [
        {
          "internalType": "address",
          "name": "owner",
          "type": "address"
        }
      ],
      "name": "balanceOf",
      "outputs": [
        {
          "internalType": "uint256",
          "name": "",
          "type": "uint256"
        }
      ],
      "stateMutability": "view",
      "type": "function"
    },
    {
      "inputs": [
        {
          "internalType": "uint256",
          "name": "id",
          "type": "uint256"
        }
      ],
      "name": "getAddressById",
      "outputs": [
        {
          "internalType": "address",
          "name": "",
          "type": "address"
        }
      ],
      "stateMutability": "view",
      "type": "function"
    },
    {
      "inputs": [
        {
          "internalType": "uint256",
          "name": "tokenId",
          "type": "uint256"
        }
      ],
      "name": "getApproved",
      "outputs": [
        {
          "internalType": "address",
          "name": "",
          "type": "address"
        }
      ],
      "stateMutability": "view",
      "type": "function"
    },
    {
      "inputs": [
        {
          "internalType": "uint256",
          "name": "id",
          "type": "uint256"
        }
      ],
      "name": "getPriceById",
      "outputs": [
        {
          "internalType": "uint256",
          "name": "",
          "type": "uint256"
        }
      ],
      "stateMutability": "view",
      "type": "function"
    },
    {
      "inputs": [
        {
          "internalType": "address",
          "name": "owner",
          "type": "address"
        },
        {
          "internalType": "address",
          "name": "operator",
          "type": "address"
        }
      ],
      "name": "isApprovedForAll",
      "outputs": [
        {
          "internalType": "bool",
          "name": "",
          "type": "bool"
        }
      ],
      "stateMutability": "view",
      "type": "function"
    },
    {
      "inputs": [
        {
          "internalType": "address",
          "name": "recipient",
          "type": "address"
        },
        {
          "internalType": "string",
          "name": "tokenURI",
          "type": "string"
        }
      ],
      "name": "mintNFT",
      "outputs": [
        {
          "internalType": "uint256",
          "name": "",
          "type": "uint256"
        }
      ],
      "stateMutability": "nonpayable",
      "type": "function"
    },
    {
      "inputs": [],
      "name": "name",
      "outputs": [
        {
          "internalType": "string",
          "name": "",
          "type": "string"
        }
      ],
      "stateMutability": "view",
      "type": "function"
    },
    {
      "inputs": [],
      "name": "owner",
      "outputs": [
        {
          "internalType": "address",
          "name": "",
          "type": "address"
        }
      ],
      "stateMutability": "view",
      "type": "function"
    },
    {
      "inputs": [
        {
          "internalType": "uint256",
          "name": "tokenId",
          "type": "uint256"
        }
      ],
      "name": "ownerOf",
      "outputs": [
        {
          "internalType": "address",
          "name": "",
          "type": "address"
        }
      ],
      "stateMutability": "view",
      "type": "function"
    },
    {
      "inputs": [],
      "name": "renounceOwnership",
      "outputs": [],
      "stateMutability": "nonpayable",
      "type": "function"
    },
    {
      "inputs": [
        {
          "internalType": "address",
          "name": "from",
          "type": "address"
        },
        {
          "internalType": "address",
          "name": "to",
          "type": "address"
        },
        {
          "internalType": "uint256",
          "name": "tokenId",
          "type": "uint256"
        }
      ],
      "name": "safeTransferFrom",
      "outputs": [],
      "stateMutability": "nonpayable",
      "type": "function"
    },
    {
      "inputs": [
        {
          "internalType": "address",
          "name": "from",
          "type": "address"
        },
        {
          "internalType": "address",
          "name": "to",
          "type": "address"
        },
        {
          "internalType": "uint256",
          "name": "tokenId",
          "type": "uint256"
        },
        {
          "internalType": "bytes",
          "name": "data",
          "type": "bytes"
        }
      ],
      "name": "safeTransferFrom",
      "outputs": [],
      "stateMutability": "nonpayable",
      "type": "function"
    },
    {
      "inputs": [
        {
          "internalType": "address",
          "name": "operator",
          "type": "address"
        },
        {
          "internalType": "bool",
          "name": "approved",
          "type": "bool"
        }
      ],
      "name": "setApprovalForAll",
      "outputs": [],
      "stateMutability": "nonpayable",
      "type": "function"
    },
    {
      "inputs": [
        {
          "internalType": "uint256",
          "name": "price",
          "type": "uint256"
        }
      ],
      "name": "setPrice",
      "outputs": [],
      "stateMutability": "nonpayable",
      "type": "function"
    },
    {
      "inputs": [
        {
          "internalType": "bytes4",
          "name": "interfaceId",
          "type": "bytes4"
        }
      ],
      "name": "supportsInterface",
      "outputs": [
        {
          "internalType": "bool",
          "name": "",
          "type": "bool"
        }
      ],
      "stateMutability": "view",
      "type": "function"
    },
    {
      "inputs": [],
      "name": "symbol",
      "outputs": [
        {
          "internalType": "string",
          "name": "",
          "type": "string"
        }
      ],
      "stateMutability": "view",
      "type": "function"
    },
    {
      "inputs": [
        {
          "internalType": "uint256",
          "name": "tokenId",
          "type": "uint256"
        }
      ],
      "name": "tokenURI",
      "outputs": [
        {
          "internalType": "string",
          "name": "",
          "type": "string"
        }
      ],
      "stateMutability": "view",
      "type": "function"
    },
    {
      "inputs": [
        {
          "internalType": "address",
          "name": "from",
          "type": "address"
        },
        {
          "internalType": "address",
          "name": "to",
          "type": "address"
        },
        {
          "internalType": "uint256",
          "name": "tokenId",
          "type": "uint256"
        }
      ],
      "name": "transferFrom",
      "outputs": [],
      "stateMutability": "nonpayable",
      "type": "function"
    },
    {
      "inputs": [
        {
          "internalType": "address",
          "name": "newOwner",
          "type": "address"
        }
      ],
      "name": "transferOwnership",
      "outputs": [],
      "stateMutability": "nonpayable",
      "type": "function"
    }
  ],
  "bytecode": "0x60806040526109c46009553480156200001757600080fd5b506040518060400160405280600781526020017f4c616e644e4654000000000000000000000000000000000000000000000000008152506040518060400160405280600781526020017f4426412e4c74640000000000000000000000000000000000000000000000000081525081600090805190602001906200009c929190620001ac565b508060019080519060200190620000b5929190620001ac565b505050620000d8620000cc620000de60201b60201c565b620000e660201b60201c565b620002c1565b600033905090565b6000600760009054906101000a900473ffffffffffffffffffffffffffffffffffffffff16905081600760006101000a81548173ffffffffffffffffffffffffffffffffffffffff021916908373ffffffffffffffffffffffffffffffffffffffff1602179055508173ffffffffffffffffffffffffffffffffffffffff168173ffffffffffffffffffffffffffffffffffffffff167f8be0079c531659141344cd1fd0a4f28419497f9722a3daafe3b4186f6b6457e060405160405180910390a35050565b828054620001ba906200025c565b90600052602060002090601f016020900481019282620001de57600085556200022a565b82601f10620001f957805160ff19168380011785556200022a565b828001600101855582156200022a579182015b82811115620002295782518255916020019190600101906200020c565b5b5090506200023991906200023d565b5090565b5b80821115620002585760008160009055506001016200023e565b5090565b600060028204905060018216806200027557607f821691505b602082108114156200028c576200028b62000292565b5b50919050565b7f4e487b7100000000000000000000000000000000000000000000000000000000600052602260045260246000fd5b612f1a80620002d16000396000f3fe608060405234801561001057600080fd5b506004361061012c5760003560e01c80638da5cb5b116100ad578063b9256b1b11610071578063b9256b1b1461032d578063c87b56dd1461035d578063e985e9c51461038d578063eacabe14146103bd578063f2fde38b146103ed5761012c565b80638da5cb5b1461029d57806391b7f5ed146102bb57806395d89b41146102d7578063a22cb465146102f5578063b88d4fde146103115761012c565b806342842e0e116100f457806342842e0e146101e75780636352211e1461020357806370a0823114610233578063715018a6146102635780638d80c9221461026d5761012c565b806301ffc9a71461013157806306fdde0314610161578063081812fc1461017f578063095ea7b3146101af57806323b872dd146101cb575b600080fd5b61014b600480360381019061014691906120cb565b610409565b60405161015891906124ae565b60405180910390f35b6101696104eb565b60405161017691906124c9565b60405180910390f35b6101996004803603810190610194919061211d565b61057d565b6040516101a69190612447565b60405180910390f35b6101c960048036038101906101c4919061208f565b6105c3565b005b6101e560048036038101906101e09190611f35565b6106db565b005b61020160048036038101906101fc9190611f35565b61073b565b005b61021d6004803603810190610218919061211d565b61075b565b60405161022a9190612447565b60405180910390f35b61024d60048036038101906102489190611ed0565b61080d565b60405161025a91906126cb565b60405180910390f35b61026b6108c5565b005b6102876004803603810190610282919061211d565b6108d9565b6040516102949190612447565b60405180910390f35b6102a5610916565b6040516102b29190612447565b60405180910390f35b6102d560048036038101906102d0919061211d565b610940565b005b6102df6109a2565b6040516102ec91906124c9565b60405180910390f35b61030f600480360381019061030a9190611fff565b610a34565b005b61032b60048036038101906103269190611f84565b610a4a565b005b6103476004803603810190610342919061211d565b610aac565b60405161035491906126cb565b60405180910390f35b6103776004803603810190610372919061211d565b610ac9565b60405161038491906124c9565b60405180910390f35b6103a760048036038101906103a29190611ef9565b610bdc565b6040516103b491906124ae565b60405180910390f35b6103d760048036038101906103d2919061203b565b610c70565b6040516103e491906126cb565b60405180910390f35b61040760048036038101906104029190611ed0565b610e23565b005b60007f80ac58cd000000000000000000000000000000000000000000000000000000007bffffffffffffffffffffffffffffffffffffffffffffffffffffffff1916827bffffffffffffffffffffffffffffffffffffffffffffffffffffffff191614806104d457507f5b5e139f000000000000000000000000000000000000000000000000000000007bffffffffffffffffffffffffffffffffffffffffffffffffffffffff1916827bffffffffffffffffffffffffffffffffffffffffffffffffffffffff1916145b806104e457506104e382610ea7565b5b9050919050565b6060600080546104fa90612921565b80601f016020809104026020016040519081016040528092919081815260200182805461052690612921565b80156105735780601f1061054857610100808354040283529160200191610573565b820191906000526020600020905b81548152906001019060200180831161055657829003601f168201915b5050505050905090565b600061058882610f11565b6004600083815260200190815260200160002060009054906101000a900473ffffffffffffffffffffffffffffffffffffffff169050919050565b60006105ce8261075b565b90508073ffffffffffffffffffffffffffffffffffffffff168373ffffffffffffffffffffffffffffffffffffffff16141561063f576040517f08c379a00000000000000000000000000000000000000000000000000000000081526004016106369061268b565b60405180910390fd5b8073ffffffffffffffffffffffffffffffffffffffff1661065e610f5c565b73ffffffffffffffffffffffffffffffffffffffff16148061068d575061068c81610687610f5c565b610bdc565b5b6106cc576040517f08c379a00000000000000000000000000000000000000000000000000000000081526004016106c39061260b565b60405180910390fd5b6106d68383610f64565b505050565b6106ec6106e6610f5c565b8261101d565b61072b576040517f08c379a0000000000000000000000000000000000000000000000000000000008152600401610722906126ab565b60405180910390fd5b6107368383836110b2565b505050565b61075683838360405180602001604052806000815250610a4a565b505050565b6000806002600084815260200190815260200160002060009054906101000a900473ffffffffffffffffffffffffffffffffffffffff169050600073ffffffffffffffffffffffffffffffffffffffff168173ffffffffffffffffffffffffffffffffffffffff161415610804576040517f08c379a00000000000000000000000000000000000000000000000000000000081526004016107fb9061266b565b60405180910390fd5b80915050919050565b60008073ffffffffffffffffffffffffffffffffffffffff168273ffffffffffffffffffffffffffffffffffffffff16141561087e576040517f08c379a0000000000000000000000000000000000000000000000000000000008152600401610875906125cb565b60405180910390fd5b600360008373ffffffffffffffffffffffffffffffffffffffff1673ffffffffffffffffffffffffffffffffffffffff168152602001908152602001600020549050919050565b6108cd611319565b6108d76000611397565b565b6000600a600083815260200190815260200160002060009054906101000a900473ffffffffffffffffffffffffffffffffffffffff169050919050565b6000600760009054906101000a900473ffffffffffffffffffffffffffffffffffffffff16905090565b610948611319565b80600d6000600b60003373ffffffffffffffffffffffffffffffffffffffff1673ffffffffffffffffffffffffffffffffffffffff1681526020019081526020016000205481526020019081526020016000208190555050565b6060600180546109b190612921565b80601f01602080910402602001604051908101604052809291908181526020018280546109dd90612921565b8015610a2a5780601f106109ff57610100808354040283529160200191610a2a565b820191906000526020600020905b815481529060010190602001808311610a0d57829003601f168201915b5050505050905090565b610a46610a3f610f5c565b838361145d565b5050565b610a5b610a55610f5c565b8361101d565b610a9a576040517f08c379a0000000000000000000000000000000000000000000000000000000008152600401610a91906126ab565b60405180910390fd5b610aa6848484846115ca565b50505050565b6000600d6000838152602001908152602001600020549050919050565b6060610ad482610f11565b6000600660008481526020019081526020016000208054610af490612921565b80601f0160208091040260200160405190810160405280929190818152602001828054610b2090612921565b8015610b6d5780601f10610b4257610100808354040283529160200191610b6d565b820191906000526020600020905b815481529060010190602001808311610b5057829003601f168201915b505050505090506000610b7e611626565b9050600081511415610b94578192505050610bd7565b600082511115610bc9578082604051602001610bb1929190612423565b60405160208183030381529060405292505050610bd7565b610bd28461163d565b925050505b919050565b6000600560008473ffffffffffffffffffffffffffffffffffffffff1673ffffffffffffffffffffffffffffffffffffffff16815260200190815260200160002060008373ffffffffffffffffffffffffffffffffffffffff1673ffffffffffffffffffffffffffffffffffffffff16815260200190815260200160002060009054906101000a900460ff16905092915050565b6000610c7a611319565b600954610c8760086116a5565b1115610cc8576040517f08c379a0000000000000000000000000000000000000000000000000000000008152600401610cbf906125ab565b60405180910390fd5b6000610cd460086116a5565b9050610ce084826116b3565b610cea818461188d565b33600a600083815260200190815260200160002060006101000a81548173ffffffffffffffffffffffffffffffffffffffff021916908373ffffffffffffffffffffffffffffffffffffffff16021790555080600b60003373ffffffffffffffffffffffffffffffffffffffff1673ffffffffffffffffffffffffffffffffffffffff168152602001908152602001600020819055506001600c60003373ffffffffffffffffffffffffffffffffffffffff1673ffffffffffffffffffffffffffffffffffffffff16815260200190815260200160002054610dcc91906127b0565b600c60003373ffffffffffffffffffffffffffffffffffffffff1673ffffffffffffffffffffffffffffffffffffffff16815260200190815260200160002081905550610e196008611901565b8091505092915050565b610e2b611319565b600073ffffffffffffffffffffffffffffffffffffffff168173ffffffffffffffffffffffffffffffffffffffff161415610e9b576040517f08c379a0000000000000000000000000000000000000000000000000000000008152600401610e929061250b565b60405180910390fd5b610ea481611397565b50565b60007f01ffc9a7000000000000000000000000000000000000000000000000000000007bffffffffffffffffffffffffffffffffffffffffffffffffffffffff1916827bffffffffffffffffffffffffffffffffffffffffffffffffffffffff1916149050919050565b610f1a81611917565b610f59576040517f08c379a0000000000000000000000000000000000000000000000000000000008152600401610f509061266b565b60405180910390fd5b50565b600033905090565b816004600083815260200190815260200160002060006101000a81548173ffffffffffffffffffffffffffffffffffffffff021916908373ffffffffffffffffffffffffffffffffffffffff160217905550808273ffffffffffffffffffffffffffffffffffffffff16610fd78361075b565b73ffffffffffffffffffffffffffffffffffffffff167f8c5be1e5ebec7d5bd14f71427d1e84f3dd0314c0f7b2291e5b200ac8c7c3b92560405160405180910390a45050565b6000806110298361075b565b90508073ffffffffffffffffffffffffffffffffffffffff168473ffffffffffffffffffffffffffffffffffffffff16148061106b575061106a8185610bdc565b5b806110a957508373ffffffffffffffffffffffffffffffffffffffff166110918461057d565b73ffffffffffffffffffffffffffffffffffffffff16145b91505092915050565b8273ffffffffffffffffffffffffffffffffffffffff166110d28261075b565b73ffffffffffffffffffffffffffffffffffffffff1614611128576040517f08c379a000000000000000000000000000000000000000000000000000000000815260040161111f9061252b565b60405180910390fd5b600073ffffffffffffffffffffffffffffffffffffffff168273ffffffffffffffffffffffffffffffffffffffff161415611198576040517f08c379a000000000000000000000000000000000000000000000000000000000815260040161118f9061256b565b60405180910390fd5b6111a3838383611983565b6111ae600082610f64565b6001600360008573ffffffffffffffffffffffffffffffffffffffff1673ffffffffffffffffffffffffffffffffffffffff16815260200190815260200160002060008282546111fe9190612837565b925050819055506001600360008473ffffffffffffffffffffffffffffffffffffffff1673ffffffffffffffffffffffffffffffffffffffff168152602001908152602001600020600082825461125591906127b0565b92505081905550816002600083815260200190815260200160002060006101000a81548173ffffffffffffffffffffffffffffffffffffffff021916908373ffffffffffffffffffffffffffffffffffffffff160217905550808273ffffffffffffffffffffffffffffffffffffffff168473ffffffffffffffffffffffffffffffffffffffff167fddf252ad1be2c89b69c2b068fc378daa952ba7f163c4a11628f55a4df523b3ef60405160405180910390a4611314838383611988565b505050565b611321610f5c565b73ffffffffffffffffffffffffffffffffffffffff1661133f610916565b73ffffffffffffffffffffffffffffffffffffffff1614611395576040517f08c379a000000000000000000000000000000000000000000000000000000000815260040161138c9061264b565b60405180910390fd5b565b6000600760009054906101000a900473ffffffffffffffffffffffffffffffffffffffff16905081600760006101000a81548173ffffffffffffffffffffffffffffffffffffffff021916908373ffffffffffffffffffffffffffffffffffffffff1602179055508173ffffffffffffffffffffffffffffffffffffffff168173ffffffffffffffffffffffffffffffffffffffff167f8be0079c531659141344cd1fd0a4f28419497f9722a3daafe3b4186f6b6457e060405160405180910390a35050565b8173ffffffffffffffffffffffffffffffffffffffff168373ffffffffffffffffffffffffffffffffffffffff1614156114cc576040517f08c379a00000000000000000000000000000000000000000000000000000000081526004016114c39061258b565b60405180910390fd5b80600560008573ffffffffffffffffffffffffffffffffffffffff1673ffffffffffffffffffffffffffffffffffffffff16815260200190815260200160002060008473ffffffffffffffffffffffffffffffffffffffff1673ffffffffffffffffffffffffffffffffffffffff16815260200190815260200160002060006101000a81548160ff0219169083151502179055508173ffffffffffffffffffffffffffffffffffffffff168373ffffffffffffffffffffffffffffffffffffffff167f17307eab39ab6107e8899845ad3d59bd9653f200f220920489ca2b5937696c31836040516115bd91906124ae565b60405180910390a3505050565b6115d58484846110b2565b6115e18484848461198d565b611620576040517f08c379a0000000000000000000000000000000000000000000000000000000008152600401611617906124eb565b60405180910390fd5b50505050565b606060405180602001604052806000815250905090565b606061164882610f11565b6000611652611626565b90506000815111611672576040518060200160405280600081525061169d565b8061167c84611b24565b60405160200161168d929190612423565b6040516020818303038152906040525b915050919050565b600081600001549050919050565b600073ffffffffffffffffffffffffffffffffffffffff168273ffffffffffffffffffffffffffffffffffffffff161415611723576040517f08c379a000000000000000000000000000000000000000000000000000000000815260040161171a9061262b565b60405180910390fd5b61172c81611917565b1561176c576040517f08c379a00000000000000000000000000000000000000000000000000000000081526004016117639061254b565b60405180910390fd5b61177860008383611983565b6001600360008473ffffffffffffffffffffffffffffffffffffffff1673ffffffffffffffffffffffffffffffffffffffff16815260200190815260200160002060008282546117c891906127b0565b92505081905550816002600083815260200190815260200160002060006101000a81548173ffffffffffffffffffffffffffffffffffffffff021916908373ffffffffffffffffffffffffffffffffffffffff160217905550808273ffffffffffffffffffffffffffffffffffffffff16600073ffffffffffffffffffffffffffffffffffffffff167fddf252ad1be2c89b69c2b068fc378daa952ba7f163c4a11628f55a4df523b3ef60405160405180910390a461188960008383611988565b5050565b61189682611917565b6118d5576040517f08c379a00000000000000000000000000000000000000000000000000000000081526004016118cc906125eb565b60405180910390fd5b806006600084815260200190815260200160002090805190602001906118fc929190611cf4565b505050565b6001816000016000828254019250508190555050565b60008073ffffffffffffffffffffffffffffffffffffffff166002600084815260200190815260200160002060009054906101000a900473ffffffffffffffffffffffffffffffffffffffff1673ffffffffffffffffffffffffffffffffffffffff1614159050919050565b505050565b505050565b60006119ae8473ffffffffffffffffffffffffffffffffffffffff16611cd1565b15611b17578373ffffffffffffffffffffffffffffffffffffffff1663150b7a026119d7610f5c565b8786866040518563ffffffff1660e01b81526004016119f99493929190612462565b602060405180830381600087803b158015611a1357600080fd5b505af1925050508015611a4457506040513d601f19601f82011682018060405250810190611a4191906120f4565b60015b611ac7573d8060008114611a74576040519150601f19603f3d011682016040523d82523d6000602084013e611a79565b606091505b50600081511415611abf576040517f08c379a0000000000000000000000000000000000000000000000000000000008152600401611ab6906124eb565b60405180910390fd5b805181602001fd5b63150b7a0260e01b7bffffffffffffffffffffffffffffffffffffffffffffffffffffffff1916817bffffffffffffffffffffffffffffffffffffffffffffffffffffffff191614915050611b1c565b600190505b949350505050565b60606000821415611b6c576040518060400160405280600181526020017f30000000000000000000000000000000000000000000000000000000000000008152509050611ccc565b600082905060005b60008214611b9e578080611b8790612984565b915050600a82611b979190612806565b9150611b74565b60008167ffffffffffffffff811115611be0577f4e487b7100000000000000000000000000000000000000000000000000000000600052604160045260246000fd5b6040519080825280601f01601f191660200182016040528015611c125781602001600182028036833780820191505090505b5090505b60008514611cc557600182611c2b9190612837565b9150600a85611c3a91906129cd565b6030611c4691906127b0565b60f81b818381518110611c82577f4e487b7100000000000000000000000000000000000000000000000000000000600052603260045260246000fd5b60200101907effffffffffffffffffffffffffffffffffffffffffffffffffffffffffffff1916908160001a905350600a85611cbe9190612806565b9450611c16565b8093505050505b919050565b6000808273ffffffffffffffffffffffffffffffffffffffff163b119050919050565b828054611d0090612921565b90600052602060002090601f016020900481019282611d225760008555611d69565b82601f10611d3b57805160ff1916838001178555611d69565b82800160010185558215611d69579182015b82811115611d68578251825591602001919060010190611d4d565b5b509050611d769190611d7a565b5090565b5b80821115611d93576000816000905550600101611d7b565b5090565b6000611daa611da58461270b565b6126e6565b905082815260208101848484011115611dc257600080fd5b611dcd8482856128df565b509392505050565b6000611de8611de38461273c565b6126e6565b905082815260208101848484011115611e0057600080fd5b611e0b8482856128df565b509392505050565b600081359050611e2281612e88565b92915050565b600081359050611e3781612e9f565b92915050565b600081359050611e4c81612eb6565b92915050565b600081519050611e6181612eb6565b92915050565b600082601f830112611e7857600080fd5b8135611e88848260208601611d97565b91505092915050565b600082601f830112611ea257600080fd5b8135611eb2848260208601611dd5565b91505092915050565b600081359050611eca81612ecd565b92915050565b600060208284031215611ee257600080fd5b6000611ef084828501611e13565b91505092915050565b60008060408385031215611f0c57600080fd5b6000611f1a85828601611e13565b9250506020611f2b85828601611e13565b9150509250929050565b600080600060608486031215611f4a57600080fd5b6000611f5886828701611e13565b9350506020611f6986828701611e13565b9250506040611f7a86828701611ebb565b9150509250925092565b60008060008060808587031215611f9a57600080fd5b6000611fa887828801611e13565b9450506020611fb987828801611e13565b9350506040611fca87828801611ebb565b925050606085013567ffffffffffffffff811115611fe757600080fd5b611ff387828801611e67565b91505092959194509250565b6000806040838503121561201257600080fd5b600061202085828601611e13565b925050602061203185828601611e28565b9150509250929050565b6000806040838503121561204e57600080fd5b600061205c85828601611e13565b925050602083013567ffffffffffffffff81111561207957600080fd5b61208585828601611e91565b9150509250929050565b600080604083850312156120a257600080fd5b60006120b085828601611e13565b92505060206120c185828601611ebb565b9150509250929050565b6000602082840312156120dd57600080fd5b60006120eb84828501611e3d565b91505092915050565b60006020828403121561210657600080fd5b600061211484828501611e52565b91505092915050565b60006020828403121561212f57600080fd5b600061213d84828501611ebb565b91505092915050565b61214f8161286b565b82525050565b61215e8161287d565b82525050565b600061216f8261276d565b6121798185612783565b93506121898185602086016128ee565b61219281612aba565b840191505092915050565b60006121a882612778565b6121b28185612794565b93506121c28185602086016128ee565b6121cb81612aba565b840191505092915050565b60006121e182612778565b6121eb81856127a5565b93506121fb8185602086016128ee565b80840191505092915050565b6000612214603283612794565b915061221f82612acb565b604082019050919050565b6000612237602683612794565b915061224282612b1a565b604082019050919050565b600061225a602583612794565b915061226582612b69565b604082019050919050565b600061227d601c83612794565b915061228882612bb8565b602082019050919050565b60006122a0602483612794565b91506122ab82612be1565b604082019050919050565b60006122c3601983612794565b91506122ce82612c30565b602082019050919050565b60006122e6601483612794565b91506122f182612c59565b602082019050919050565b6000612309602983612794565b915061231482612c82565b604082019050919050565b600061232c602e83612794565b915061233782612cd1565b604082019050919050565b600061234f603e83612794565b915061235a82612d20565b604082019050919050565b6000612372602083612794565b915061237d82612d6f565b602082019050919050565b6000612395602083612794565b91506123a082612d98565b602082019050919050565b60006123b8601883612794565b91506123c382612dc1565b602082019050919050565b60006123db602183612794565b91506123e682612dea565b604082019050919050565b60006123fe602e83612794565b915061240982612e39565b604082019050919050565b61241d816128d5565b82525050565b600061242f82856121d6565b915061243b82846121d6565b91508190509392505050565b600060208201905061245c6000830184612146565b92915050565b60006080820190506124776000830187612146565b6124846020830186612146565b6124916040830185612414565b81810360608301526124a38184612164565b905095945050505050565b60006020820190506124c36000830184612155565b92915050565b600060208201905081810360008301526124e3818461219d565b905092915050565b6000602082019050818103600083015261250481612207565b9050919050565b600060208201905081810360008301526125248161222a565b9050919050565b600060208201905081810360008301526125448161224d565b9050919050565b6000602082019050818103600083015261256481612270565b9050919050565b6000602082019050818103600083015261258481612293565b9050919050565b600060208201905081810360008301526125a4816122b6565b9050919050565b600060208201905081810360008301526125c4816122d9565b9050919050565b600060208201905081810360008301526125e4816122fc565b9050919050565b600060208201905081810360008301526126048161231f565b9050919050565b6000602082019050818103600083015261262481612342565b9050919050565b6000602082019050818103600083015261264481612365565b9050919050565b6000602082019050818103600083015261266481612388565b9050919050565b60006020820190508181036000830152612684816123ab565b9050919050565b600060208201905081810360008301526126a4816123ce565b9050919050565b600060208201905081810360008301526126c4816123f1565b9050919050565b60006020820190506126e06000830184612414565b92915050565b60006126f0612701565b90506126fc8282612953565b919050565b6000604051905090565b600067ffffffffffffffff82111561272657612725612a8b565b5b61272f82612aba565b9050602081019050919050565b600067ffffffffffffffff82111561275757612756612a8b565b5b61276082612aba565b9050602081019050919050565b600081519050919050565b600081519050919050565b600082825260208201905092915050565b600082825260208201905092915050565b600081905092915050565b60006127bb826128d5565b91506127c6836128d5565b9250827fffffffffffffffffffffffffffffffffffffffffffffffffffffffffffffffff038211156127fb576127fa6129fe565b5b828201905092915050565b6000612811826128d5565b915061281c836128d5565b92508261282c5761282b612a2d565b5b828204905092915050565b6000612842826128d5565b915061284d836128d5565b9250828210156128605761285f6129fe565b5b828203905092915050565b6000612876826128b5565b9050919050565b60008115159050919050565b60007fffffffff0000000000000000000000000000000000000000000000000000000082169050919050565b600073ffffffffffffffffffffffffffffffffffffffff82169050919050565b6000819050919050565b82818337600083830152505050565b60005b8381101561290c5780820151818401526020810190506128f1565b8381111561291b576000848401525b50505050565b6000600282049050600182168061293957607f821691505b6020821081141561294d5761294c612a5c565b5b50919050565b61295c82612aba565b810181811067ffffffffffffffff8211171561297b5761297a612a8b565b5b80604052505050565b600061298f826128d5565b91507fffffffffffffffffffffffffffffffffffffffffffffffffffffffffffffffff8214156129c2576129c16129fe565b5b600182019050919050565b60006129d8826128d5565b91506129e3836128d5565b9250826129f3576129f2612a2d565b5b828206905092915050565b7f4e487b7100000000000000000000000000000000000000000000000000000000600052601160045260246000fd5b7f4e487b7100000000000000000000000000000000000000000000000000000000600052601260045260246000fd5b7f4e487b7100000000000000000000000000000000000000000000000000000000600052602260045260246000fd5b7f4e487b7100000000000000000000000000000000000000000000000000000000600052604160045260246000fd5b6000601f19601f8301169050919050565b7f4552433732313a207472616e7366657220746f206e6f6e20455243373231526560008201527f63656976657220696d706c656d656e7465720000000000000000000000000000602082015250565b7f4f776e61626c653a206e6577206f776e657220697320746865207a65726f206160008201527f6464726573730000000000000000000000000000000000000000000000000000602082015250565b7f4552433732313a207472616e736665722066726f6d20696e636f72726563742060008201527f6f776e6572000000000000000000000000000000000000000000000000000000602082015250565b7f4552433732313a20746f6b656e20616c7265616479206d696e74656400000000600082015250565b7f4552433732313a207472616e7366657220746f20746865207a65726f2061646460008201527f7265737300000000000000000000000000000000000000000000000000000000602082015250565b7f4552433732313a20617070726f766520746f2063616c6c657200000000000000600082015250565b7f4e6f206d6f7265204e46547320746f206d696e74000000000000000000000000600082015250565b7f4552433732313a2061646472657373207a65726f206973206e6f74206120766160008201527f6c6964206f776e65720000000000000000000000000000000000000000000000602082015250565b7f45524337323155524953746f726167653a2055524920736574206f66206e6f6e60008201527f6578697374656e7420746f6b656e000000000000000000000000000000000000602082015250565b7f4552433732313a20617070726f76652063616c6c6572206973206e6f7420746f60008201527f6b656e206f776e6572206e6f7220617070726f76656420666f7220616c6c0000602082015250565b7f4552433732313a206d696e7420746f20746865207a65726f2061646472657373600082015250565b7f4f776e61626c653a2063616c6c6572206973206e6f7420746865206f776e6572600082015250565b7f4552433732313a20696e76616c696420746f6b656e2049440000000000000000600082015250565b7f4552433732313a20617070726f76616c20746f2063757272656e74206f776e6560008201527f7200000000000000000000000000000000000000000000000000000000000000602082015250565b7f4552433732313a2063616c6c6572206973206e6f7420746f6b656e206f776e6560008201527f72206e6f7220617070726f766564000000000000000000000000000000000000602082015250565b612e918161286b565b8114612e9c57600080fd5b50565b612ea88161287d565b8114612eb357600080fd5b50565b612ebf81612889565b8114612eca57600080fd5b50565b612ed6816128d5565b8114612ee157600080fd5b5056fea2646970667358221220175d35062da36118f7497b549661747d1d9bdd52ab755b73014b4fbe0b7c176864736f6c63430008040033",
  "linkReferences": {},
  "deployedLinkReferences": {}
}